{
  "_format": "hh-sol-artifact-1",
  "contractName": "AvatarNFT",
  "sourceName": "contracts/AvatarNFT.sol",
  "abi": [
    {
      "inputs": [],
      "stateMutability": "nonpayable",
      "type": "constructor"
    },
    {
      "inputs": [],
      "name": "ERC721EnumerableForbiddenBatchMint",
      "type": "error"
    },
    {
      "inputs": [
        {
          "internalType": "address",
          "name": "sender",
          "type": "address"
        },
        {
          "internalType": "uint256",
          "name": "tokenId",
          "type": "uint256"
        },
        {
          "internalType": "address",
          "name": "owner",
          "type": "address"
        }
      ],
      "name": "ERC721IncorrectOwner",
      "type": "error"
    },
    {
      "inputs": [
        {
          "internalType": "address",
          "name": "operator",
          "type": "address"
        },
        {
          "internalType": "uint256",
          "name": "tokenId",
          "type": "uint256"
        }
      ],
      "name": "ERC721InsufficientApproval",
      "type": "error"
    },
    {
      "inputs": [
        {
          "internalType": "address",
          "name": "approver",
          "type": "address"
        }
      ],
      "name": "ERC721InvalidApprover",
      "type": "error"
    },
    {
      "inputs": [
        {
          "internalType": "address",
          "name": "operator",
          "type": "address"
        }
      ],
      "name": "ERC721InvalidOperator",
      "type": "error"
    },
    {
      "inputs": [
        {
          "internalType": "address",
          "name": "owner",
          "type": "address"
        }
      ],
      "name": "ERC721InvalidOwner",
      "type": "error"
    },
    {
      "inputs": [
        {
          "internalType": "address",
          "name": "receiver",
          "type": "address"
        }
      ],
      "name": "ERC721InvalidReceiver",
      "type": "error"
    },
    {
      "inputs": [
        {
          "internalType": "address",
          "name": "sender",
          "type": "address"
        }
      ],
      "name": "ERC721InvalidSender",
      "type": "error"
    },
    {
      "inputs": [
        {
          "internalType": "uint256",
          "name": "tokenId",
          "type": "uint256"
        }
      ],
      "name": "ERC721NonexistentToken",
      "type": "error"
    },
    {
      "inputs": [
        {
          "internalType": "address",
          "name": "owner",
          "type": "address"
        },
        {
          "internalType": "uint256",
          "name": "index",
          "type": "uint256"
        }
      ],
      "name": "ERC721OutOfBoundsIndex",
      "type": "error"
    },
    {
      "inputs": [
        {
          "internalType": "address",
          "name": "owner",
          "type": "address"
        }
      ],
      "name": "OwnableInvalidOwner",
      "type": "error"
    },
    {
      "inputs": [
        {
          "internalType": "address",
          "name": "account",
          "type": "address"
        }
      ],
      "name": "OwnableUnauthorizedAccount",
      "type": "error"
    },
    {
      "anonymous": false,
      "inputs": [
        {
          "indexed": true,
          "internalType": "address",
          "name": "owner",
          "type": "address"
        },
        {
          "indexed": true,
          "internalType": "address",
          "name": "approved",
          "type": "address"
        },
        {
          "indexed": true,
          "internalType": "uint256",
          "name": "tokenId",
          "type": "uint256"
        }
      ],
      "name": "Approval",
      "type": "event"
    },
    {
      "anonymous": false,
      "inputs": [
        {
          "indexed": true,
          "internalType": "address",
          "name": "owner",
          "type": "address"
        },
        {
          "indexed": true,
          "internalType": "address",
          "name": "operator",
          "type": "address"
        },
        {
          "indexed": false,
          "internalType": "bool",
          "name": "approved",
          "type": "bool"
        }
      ],
      "name": "ApprovalForAll",
      "type": "event"
    },
    {
      "anonymous": false,
      "inputs": [
        {
          "indexed": false,
          "internalType": "uint256",
          "name": "_fromTokenId",
          "type": "uint256"
        },
        {
          "indexed": false,
          "internalType": "uint256",
          "name": "_toTokenId",
          "type": "uint256"
        }
      ],
      "name": "BatchMetadataUpdate",
      "type": "event"
    },
    {
      "anonymous": false,
      "inputs": [
        {
          "indexed": false,
          "internalType": "uint256",
          "name": "_tokenId",
          "type": "uint256"
        }
      ],
      "name": "MetadataUpdate",
      "type": "event"
    },
    {
      "anonymous": false,
      "inputs": [
        {
          "indexed": true,
          "internalType": "address",
          "name": "previousOwner",
          "type": "address"
        },
        {
          "indexed": true,
          "internalType": "address",
          "name": "newOwner",
          "type": "address"
        }
      ],
      "name": "OwnershipTransferred",
      "type": "event"
    },
    {
      "anonymous": false,
      "inputs": [
        {
          "indexed": true,
          "internalType": "address",
          "name": "from",
          "type": "address"
        },
        {
          "indexed": true,
          "internalType": "address",
          "name": "to",
          "type": "address"
        },
        {
          "indexed": true,
          "internalType": "uint256",
          "name": "tokenId",
          "type": "uint256"
        }
      ],
      "name": "Transfer",
      "type": "event"
    },
    {
      "inputs": [
        {
          "internalType": "address",
          "name": "to",
          "type": "address"
        },
        {
          "internalType": "uint256",
          "name": "tokenId",
          "type": "uint256"
        }
      ],
      "name": "approve",
      "outputs": [],
      "stateMutability": "nonpayable",
      "type": "function"
    },
    {
      "inputs": [
        {
          "internalType": "address",
          "name": "owner",
          "type": "address"
        }
      ],
      "name": "balanceOf",
      "outputs": [
        {
          "internalType": "uint256",
          "name": "",
          "type": "uint256"
        }
      ],
      "stateMutability": "view",
      "type": "function"
    },
    {
      "inputs": [
        {
          "internalType": "uint256",
          "name": "tokenId",
          "type": "uint256"
        }
      ],
      "name": "burn",
      "outputs": [],
      "stateMutability": "nonpayable",
      "type": "function"
    },
    {
      "inputs": [
        {
          "internalType": "uint256",
          "name": "tokenId",
          "type": "uint256"
        }
      ],
      "name": "getApproved",
      "outputs": [
        {
          "internalType": "address",
          "name": "",
          "type": "address"
        }
      ],
      "stateMutability": "view",
      "type": "function"
    },
    {
      "inputs": [
        {
          "internalType": "uint256",
          "name": "tokenId",
          "type": "uint256"
        }
      ],
      "name": "getHashData",
      "outputs": [
        {
          "internalType": "bytes32",
          "name": "",
          "type": "bytes32"
        }
      ],
      "stateMutability": "view",
      "type": "function"
    },
    {
      "inputs": [
        {
          "internalType": "address",
          "name": "owner",
          "type": "address"
        },
        {
          "internalType": "address",
          "name": "operator",
          "type": "address"
        }
      ],
      "name": "isApprovedForAll",
      "outputs": [
        {
          "internalType": "bool",
          "name": "",
          "type": "bool"
        }
      ],
      "stateMutability": "view",
      "type": "function"
    },
    {
      "inputs": [],
      "name": "name",
      "outputs": [
        {
          "internalType": "string",
          "name": "",
          "type": "string"
        }
      ],
      "stateMutability": "view",
      "type": "function"
    },
    {
      "inputs": [],
      "name": "owner",
      "outputs": [
        {
          "internalType": "address",
          "name": "",
          "type": "address"
        }
      ],
      "stateMutability": "view",
      "type": "function"
    },
    {
      "inputs": [
        {
          "internalType": "uint256",
          "name": "tokenId",
          "type": "uint256"
        }
      ],
      "name": "ownerOf",
      "outputs": [
        {
          "internalType": "address",
          "name": "",
          "type": "address"
        }
      ],
      "stateMutability": "view",
      "type": "function"
    },
    {
      "inputs": [],
      "name": "renounceOwnership",
      "outputs": [],
      "stateMutability": "nonpayable",
      "type": "function"
    },
    {
      "inputs": [
        {
          "internalType": "address",
          "name": "to",
          "type": "address"
        },
        {
          "internalType": "bytes32",
          "name": "hashData",
          "type": "bytes32"
        }
      ],
      "name": "safeMint",
      "outputs": [],
      "stateMutability": "nonpayable",
      "type": "function"
    },
    {
      "inputs": [
        {
          "internalType": "address",
          "name": "from",
          "type": "address"
        },
        {
          "internalType": "address",
          "name": "to",
          "type": "address"
        },
        {
          "internalType": "uint256",
          "name": "tokenId",
          "type": "uint256"
        }
      ],
      "name": "safeTransferFrom",
      "outputs": [],
      "stateMutability": "nonpayable",
      "type": "function"
    },
    {
      "inputs": [
        {
          "internalType": "address",
          "name": "from",
          "type": "address"
        },
        {
          "internalType": "address",
          "name": "to",
          "type": "address"
        },
        {
          "internalType": "uint256",
          "name": "tokenId",
          "type": "uint256"
        },
        {
          "internalType": "bytes",
          "name": "data",
          "type": "bytes"
        }
      ],
      "name": "safeTransferFrom",
      "outputs": [],
      "stateMutability": "nonpayable",
      "type": "function"
    },
    {
      "inputs": [
        {
          "internalType": "bytes32",
          "name": "hashData",
          "type": "bytes32"
        },
        {
          "internalType": "uint256",
          "name": "tokenId",
          "type": "uint256"
        }
      ],
      "name": "saveHashData",
      "outputs": [],
      "stateMutability": "nonpayable",
      "type": "function"
    },
    {
      "inputs": [
        {
          "internalType": "address",
          "name": "operator",
          "type": "address"
        },
        {
          "internalType": "bool",
          "name": "approved",
          "type": "bool"
        }
      ],
      "name": "setApprovalForAll",
      "outputs": [],
      "stateMutability": "nonpayable",
      "type": "function"
    },
    {
      "inputs": [
        {
          "internalType": "bytes4",
          "name": "interfaceId",
          "type": "bytes4"
        }
      ],
      "name": "supportsInterface",
      "outputs": [
        {
          "internalType": "bool",
          "name": "",
          "type": "bool"
        }
      ],
      "stateMutability": "view",
      "type": "function"
    },
    {
      "inputs": [],
      "name": "symbol",
      "outputs": [
        {
          "internalType": "string",
          "name": "",
          "type": "string"
        }
      ],
      "stateMutability": "view",
      "type": "function"
    },
    {
      "inputs": [
        {
          "internalType": "uint256",
          "name": "index",
          "type": "uint256"
        }
      ],
      "name": "tokenByIndex",
      "outputs": [
        {
          "internalType": "uint256",
          "name": "",
          "type": "uint256"
        }
      ],
      "stateMutability": "view",
      "type": "function"
    },
    {
      "inputs": [
        {
          "internalType": "address",
          "name": "owner",
          "type": "address"
        },
        {
          "internalType": "uint256",
          "name": "index",
          "type": "uint256"
        }
      ],
      "name": "tokenOfOwnerByIndex",
      "outputs": [
        {
          "internalType": "uint256",
          "name": "",
          "type": "uint256"
        }
      ],
      "stateMutability": "view",
      "type": "function"
    },
    {
      "inputs": [
        {
          "internalType": "uint256",
          "name": "tokenId",
          "type": "uint256"
        }
      ],
      "name": "tokenURI",
      "outputs": [
        {
          "internalType": "string",
          "name": "",
          "type": "string"
        }
      ],
      "stateMutability": "view",
      "type": "function"
    },
    {
      "inputs": [],
      "name": "totalSupply",
      "outputs": [
        {
          "internalType": "uint256",
          "name": "",
          "type": "uint256"
        }
      ],
      "stateMutability": "view",
      "type": "function"
    },
    {
      "inputs": [
        {
          "internalType": "address",
          "name": "from",
          "type": "address"
        },
        {
          "internalType": "address",
          "name": "to",
          "type": "address"
        },
        {
          "internalType": "uint256",
          "name": "tokenId",
          "type": "uint256"
        }
      ],
      "name": "transferFrom",
      "outputs": [],
      "stateMutability": "nonpayable",
      "type": "function"
    },
    {
      "inputs": [
        {
          "internalType": "address",
          "name": "newOwner",
          "type": "address"
        }
      ],
      "name": "transferOwnership",
      "outputs": [],
      "stateMutability": "nonpayable",
      "type": "function"
    }
  ],
  "bytecode": "0x60806040523480156200001157600080fd5b50336040518060400160405280600981526020017f4176617461724e465400000000000000000000000000000000000000000000008152506040518060400160405280600381526020017f4156540000000000000000000000000000000000000000000000000000000000815250816000908162000090919062000472565b508060019081620000a2919062000472565b505050600073ffffffffffffffffffffffffffffffffffffffff168173ffffffffffffffffffffffffffffffffffffffff16036200011a5760006040517f1e4fbdf70000000000000000000000000000000000000000000000000000000081526004016200011191906200059e565b60405180910390fd5b6200012b816200013260201b60201c565b50620005bb565b6000600b60009054906101000a900473ffffffffffffffffffffffffffffffffffffffff16905081600b60006101000a81548173ffffffffffffffffffffffffffffffffffffffff021916908373ffffffffffffffffffffffffffffffffffffffff1602179055508173ffffffffffffffffffffffffffffffffffffffff168173ffffffffffffffffffffffffffffffffffffffff167f8be0079c531659141344cd1fd0a4f28419497f9722a3daafe3b4186f6b6457e060405160405180910390a35050565b600081519050919050565b7f4e487b7100000000000000000000000000000000000000000000000000000000600052604160045260246000fd5b7f4e487b7100000000000000000000000000000000000000000000000000000000600052602260045260246000fd5b600060028204905060018216806200027a57607f821691505b60208210810362000290576200028f62000232565b5b50919050565b60008190508160005260206000209050919050565b60006020601f8301049050919050565b600082821b905092915050565b600060088302620002fa7fffffffffffffffffffffffffffffffffffffffffffffffffffffffffffffffff82620002bb565b620003068683620002bb565b95508019841693508086168417925050509392505050565b6000819050919050565b6000819050919050565b6000620003536200034d62000347846200031e565b62000328565b6200031e565b9050919050565b6000819050919050565b6200036f8362000332565b620003876200037e826200035a565b848454620002c8565b825550505050565b600090565b6200039e6200038f565b620003ab81848462000364565b505050565b5b81811015620003d357620003c760008262000394565b600181019050620003b1565b5050565b601f8211156200042257620003ec8162000296565b620003f784620002ab565b8101602085101562000407578190505b6200041f6200041685620002ab565b830182620003b0565b50505b505050565b600082821c905092915050565b6000620004476000198460080262000427565b1980831691505092915050565b600062000462838362000434565b9150826002028217905092915050565b6200047d82620001f8565b67ffffffffffffffff81111562000499576200049862000203565b5b620004a5825462000261565b620004b2828285620003d7565b600060209050601f831160018114620004ea5760008415620004d5578287015190505b620004e1858262000454565b86555062000551565b601f198416620004fa8662000296565b60005b828110156200052457848901518255600182019150602085019450602081019050620004fd565b8683101562000544578489015162000540601f89168262000434565b8355505b6001600288020188555050505b505050505050565b600073ffffffffffffffffffffffffffffffffffffffff82169050919050565b6000620005868262000559565b9050919050565b620005988162000579565b82525050565b6000602082019050620005b560008301846200058d565b92915050565b61324480620005cb6000396000f3fe608060405234801561001057600080fd5b506004361061014d5760003560e01c80636352211e116100c3578063a22cb4651161007c578063a22cb4651461039c578063aceaf4a0146103b8578063b88d4fde146103e8578063c87b56dd14610404578063e985e9c514610434578063f2fde38b146104645761014d565b80636352211e146102da57806367d51cc41461030a57806370a0823114610326578063715018a6146103565780638da5cb5b1461036057806395d89b411461037e5761014d565b806323b872dd1161011557806323b872dd1461020a578063240c520f146102265780632f745c591461024257806342842e0e1461027257806342966c681461028e5780634f6ccce7146102aa5761014d565b806301ffc9a71461015257806306fdde0314610182578063081812fc146101a0578063095ea7b3146101d057806318160ddd146101ec575b600080fd5b61016c6004803603810190610167919061227c565b610480565b60405161017991906122c4565b60405180910390f35b61018a610492565b604051610197919061236f565b60405180910390f35b6101ba60048036038101906101b591906123c7565b610524565b6040516101c79190612435565b60405180910390f35b6101ea60048036038101906101e5919061247c565b610540565b005b6101f4610556565b60405161020191906124cb565b60405180910390f35b610224600480360381019061021f91906124e6565b610563565b005b610240600480360381019061023b919061256f565b610665565b005b61025c6004803603810190610257919061247c565b610689565b60405161026991906124cb565b60405180910390f35b61028c600480360381019061028791906124e6565b610732565b005b6102a860048036038101906102a391906123c7565b610752565b005b6102c460048036038101906102bf91906123c7565b610769565b6040516102d191906124cb565b60405180910390f35b6102f460048036038101906102ef91906123c7565b6107df565b6040516103019190612435565b60405180910390f35b610324600480360381019061031f91906125af565b6107f1565b005b610340600480360381019061033b91906125ef565b61083f565b60405161034d91906124cb565b60405180910390f35b61035e6108f9565b005b61036861090d565b6040516103759190612435565b60405180910390f35b610386610937565b604051610393919061236f565b60405180910390f35b6103b660048036038101906103b19190612648565b6109c9565b005b6103d260048036038101906103cd91906123c7565b6109df565b6040516103df9190612697565b60405180910390f35b61040260048036038101906103fd91906127e7565b6109fc565b005b61041e600480360381019061041991906123c7565b610a19565b60405161042b919061236f565b60405180910390f35b61044e6004803603810190610449919061286a565b610a7b565b60405161045b91906122c4565b60405180910390f35b61047e600480360381019061047991906125ef565b610b0f565b005b600061048b82610b95565b9050919050565b6060600080546104a1906128d9565b80601f01602080910402602001604051908101604052809291908181526020018280546104cd906128d9565b801561051a5780601f106104ef5761010080835404028352916020019161051a565b820191906000526020600020905b8154815290600101906020018083116104fd57829003601f168201915b5050505050905090565b600061052f82610bf6565b5061053982610c7e565b9050919050565b610552828261054d610cbb565b610cc3565b5050565b6000600880549050905090565b600073ffffffffffffffffffffffffffffffffffffffff168273ffffffffffffffffffffffffffffffffffffffff16036105d55760006040517f64a0ae920000000000000000000000000000000000000000000000000000000081526004016105cc9190612435565b60405180910390fd5b60006105e983836105e4610cbb565b610cd5565b90508373ffffffffffffffffffffffffffffffffffffffff168173ffffffffffffffffffffffffffffffffffffffff161461065f578382826040517f64283d7b0000000000000000000000000000000000000000000000000000000081526004016106569392919061290a565b60405180910390fd5b50505050565b61066d610ceb565b81600d6000838152602001908152602001600020819055505050565b60006106948361083f565b82106106d95782826040517fa57d13dc0000000000000000000000000000000000000000000000000000000081526004016106d0929190612941565b60405180910390fd5b600660008473ffffffffffffffffffffffffffffffffffffffff1673ffffffffffffffffffffffffffffffffffffffff168152602001908152602001600020600083815260200190815260200160002054905092915050565b61074d838383604051806020016040528060008152506109fc565b505050565b610765600082610760610cbb565b610cd5565b5050565b6000610773610556565b82106107b9576000826040517fa57d13dc0000000000000000000000000000000000000000000000000000000081526004016107b0929190612941565b60405180910390fd5b600882815481106107cd576107cc61296a565b5b90600052602060002001549050919050565b60006107ea82610bf6565b9050919050565b6107f9610ceb565b6000600c600081548092919061080e906129c8565b91905055905061081e8382610d72565b6108308161082b83610a19565b610d90565b61083a8282610665565b505050565b60008073ffffffffffffffffffffffffffffffffffffffff168273ffffffffffffffffffffffffffffffffffffffff16036108b25760006040517f89c62b640000000000000000000000000000000000000000000000000000000081526004016108a99190612435565b60405180910390fd5b600360008373ffffffffffffffffffffffffffffffffffffffff1673ffffffffffffffffffffffffffffffffffffffff168152602001908152602001600020549050919050565b610901610ceb565b61090b6000610dec565b565b6000600b60009054906101000a900473ffffffffffffffffffffffffffffffffffffffff16905090565b606060018054610946906128d9565b80601f0160208091040260200160405190810160405280929190818152602001828054610972906128d9565b80156109bf5780601f10610994576101008083540402835291602001916109bf565b820191906000526020600020905b8154815290600101906020018083116109a257829003601f168201915b5050505050905090565b6109db6109d4610cbb565b8383610eb2565b5050565b6000600d6000838152602001908152602001600020549050919050565b610a07848484610563565b610a1384848484611021565b50505050565b6060610a55610a27836111d8565b610a30846111d8565b604051602001610a41929190612c60565b6040516020818303038152906040526112a6565b604051602001610a659190612d12565b6040516020818303038152906040529050919050565b6000600560008473ffffffffffffffffffffffffffffffffffffffff1673ffffffffffffffffffffffffffffffffffffffff16815260200190815260200160002060008373ffffffffffffffffffffffffffffffffffffffff1673ffffffffffffffffffffffffffffffffffffffff16815260200190815260200160002060009054906101000a900460ff16905092915050565b610b17610ceb565b600073ffffffffffffffffffffffffffffffffffffffff168173ffffffffffffffffffffffffffffffffffffffff1603610b895760006040517f1e4fbdf7000000000000000000000000000000000000000000000000000000008152600401610b809190612435565b60405180910390fd5b610b9281610dec565b50565b6000634906490660e01b7bffffffffffffffffffffffffffffffffffffffffffffffffffffffff1916827bffffffffffffffffffffffffffffffffffffffffffffffffffffffff19161480610bef5750610bee8261141e565b5b9050919050565b600080610c0283611498565b9050600073ffffffffffffffffffffffffffffffffffffffff168173ffffffffffffffffffffffffffffffffffffffff1603610c7557826040517f7e273289000000000000000000000000000000000000000000000000000000008152600401610c6c91906124cb565b60405180910390fd5b80915050919050565b60006004600083815260200190815260200160002060009054906101000a900473ffffffffffffffffffffffffffffffffffffffff169050919050565b600033905090565b610cd083838360016114d5565b505050565b6000610ce284848461169a565b90509392505050565b610cf3610cbb565b73ffffffffffffffffffffffffffffffffffffffff16610d1161090d565b73ffffffffffffffffffffffffffffffffffffffff1614610d7057610d34610cbb565b6040517f118cdaa7000000000000000000000000000000000000000000000000000000008152600401610d679190612435565b60405180910390fd5b565b610d8c8282604051806020016040528060008152506117b7565b5050565b80600a60008481526020019081526020016000209081610db09190612ee0565b507ff8e1a15aba9398e019f0b49df1a4fde98ee17ae345cb5f6b5e2c27f5033e8ce782604051610de091906124cb565b60405180910390a15050565b6000600b60009054906101000a900473ffffffffffffffffffffffffffffffffffffffff16905081600b60006101000a81548173ffffffffffffffffffffffffffffffffffffffff021916908373ffffffffffffffffffffffffffffffffffffffff1602179055508173ffffffffffffffffffffffffffffffffffffffff168173ffffffffffffffffffffffffffffffffffffffff167f8be0079c531659141344cd1fd0a4f28419497f9722a3daafe3b4186f6b6457e060405160405180910390a35050565b600073ffffffffffffffffffffffffffffffffffffffff168273ffffffffffffffffffffffffffffffffffffffff1603610f2357816040517f5b08ba18000000000000000000000000000000000000000000000000000000008152600401610f1a9190612435565b60405180910390fd5b80600560008573ffffffffffffffffffffffffffffffffffffffff1673ffffffffffffffffffffffffffffffffffffffff16815260200190815260200160002060008473ffffffffffffffffffffffffffffffffffffffff1673ffffffffffffffffffffffffffffffffffffffff16815260200190815260200160002060006101000a81548160ff0219169083151502179055508173ffffffffffffffffffffffffffffffffffffffff168373ffffffffffffffffffffffffffffffffffffffff167f17307eab39ab6107e8899845ad3d59bd9653f200f220920489ca2b5937696c318360405161101491906122c4565b60405180910390a3505050565b60008373ffffffffffffffffffffffffffffffffffffffff163b11156111d2578273ffffffffffffffffffffffffffffffffffffffff1663150b7a02611065610cbb565b8685856040518563ffffffff1660e01b81526004016110879493929190613007565b6020604051808303816000875af19250505080156110c357506040513d601f19601f820116820180604052508101906110c09190613068565b60015b611147573d80600081146110f3576040519150601f19603f3d011682016040523d82523d6000602084013e6110f8565b606091505b50600081510361113f57836040517f64a0ae920000000000000000000000000000000000000000000000000000000081526004016111369190612435565b60405180910390fd5b805181602001fd5b63150b7a0260e01b7bffffffffffffffffffffffffffffffffffffffffffffffffffffffff1916817bffffffffffffffffffffffffffffffffffffffffffffffffffffffff1916146111d057836040517f64a0ae920000000000000000000000000000000000000000000000000000000081526004016111c79190612435565b60405180910390fd5b505b50505050565b6060600060016111e7846117d3565b01905060008167ffffffffffffffff811115611206576112056126bc565b5b6040519080825280601f01601f1916602001820160405280156112385781602001600182028036833780820191505090505b509050600082602001820190505b60011561129b578080600190039150507f3031323334353637383961626364656600000000000000000000000000000000600a86061a8153600a858161128f5761128e613095565b5b04945060008503611246575b819350505050919050565b606060008251036112c857604051806020016040528060008152509050611419565b60006040518060600160405280604081526020016131cf60409139905060006003600285516112f791906130c4565b61130191906130f8565b600461130d9190613129565b9050600060208261131e91906130c4565b67ffffffffffffffff811115611337576113366126bc565b5b6040519080825280601f01601f1916602001820160405280156113695781602001600182028036833780820191505090505b509050818152600183018586518101602084015b818310156113d8576003830192508251603f8160121c168501518253600182019150603f81600c1c168501518253600182019150603f8160061c168501518253600182019150603f811685015182536001820191505061137d565b6003895106600181146113f257600281146114025761140d565b613d3d60f01b600283035261140d565b603d60f81b60018303525b50505050508093505050505b919050565b60007f780e9d63000000000000000000000000000000000000000000000000000000007bffffffffffffffffffffffffffffffffffffffffffffffffffffffff1916827bffffffffffffffffffffffffffffffffffffffffffffffffffffffff19161480611491575061149082611926565b5b9050919050565b60006002600083815260200190815260200160002060009054906101000a900473ffffffffffffffffffffffffffffffffffffffff169050919050565b808061150e5750600073ffffffffffffffffffffffffffffffffffffffff168273ffffffffffffffffffffffffffffffffffffffff1614155b1561164257600061151e84610bf6565b9050600073ffffffffffffffffffffffffffffffffffffffff168373ffffffffffffffffffffffffffffffffffffffff161415801561158957508273ffffffffffffffffffffffffffffffffffffffff168173ffffffffffffffffffffffffffffffffffffffff1614155b801561159c575061159a8184610a7b565b155b156115de57826040517fa9fbf51f0000000000000000000000000000000000000000000000000000000081526004016115d59190612435565b60405180910390fd5b811561164057838573ffffffffffffffffffffffffffffffffffffffff168273ffffffffffffffffffffffffffffffffffffffff167f8c5be1e5ebec7d5bd14f71427d1e84f3dd0314c0f7b2291e5b200ac8c7c3b92560405160405180910390a45b505b836004600085815260200190815260200160002060006101000a81548173ffffffffffffffffffffffffffffffffffffffff021916908373ffffffffffffffffffffffffffffffffffffffff16021790555050505050565b6000806116a8858585611a08565b9050600073ffffffffffffffffffffffffffffffffffffffff168173ffffffffffffffffffffffffffffffffffffffff16036116ec576116e784611c22565b61172b565b8473ffffffffffffffffffffffffffffffffffffffff168173ffffffffffffffffffffffffffffffffffffffff161461172a576117298185611c6b565b5b5b600073ffffffffffffffffffffffffffffffffffffffff168573ffffffffffffffffffffffffffffffffffffffff160361176d5761176884611dcc565b6117ac565b8473ffffffffffffffffffffffffffffffffffffffff168173ffffffffffffffffffffffffffffffffffffffff16146117ab576117aa8585611e9d565b5b5b809150509392505050565b6117c18383611f28565b6117ce6000848484611021565b505050565b600080600090507a184f03e93ff9f4daa797ed6e38ed64bf6a1f0100000000000000008310611831577a184f03e93ff9f4daa797ed6e38ed64bf6a1f010000000000000000838161182757611826613095565b5b0492506040810190505b6d04ee2d6d415b85acef8100000000831061186e576d04ee2d6d415b85acef8100000000838161186457611863613095565b5b0492506020810190505b662386f26fc10000831061189d57662386f26fc10000838161189357611892613095565b5b0492506010810190505b6305f5e10083106118c6576305f5e10083816118bc576118bb613095565b5b0492506008810190505b61271083106118eb5761271083816118e1576118e0613095565b5b0492506004810190505b6064831061190e576064838161190457611903613095565b5b0492506002810190505b600a831061191d576001810190505b80915050919050565b60007f80ac58cd000000000000000000000000000000000000000000000000000000007bffffffffffffffffffffffffffffffffffffffffffffffffffffffff1916827bffffffffffffffffffffffffffffffffffffffffffffffffffffffff191614806119f157507f5b5e139f000000000000000000000000000000000000000000000000000000007bffffffffffffffffffffffffffffffffffffffffffffffffffffffff1916827bffffffffffffffffffffffffffffffffffffffffffffffffffffffff1916145b80611a015750611a0082612021565b5b9050919050565b600080611a1484611498565b9050600073ffffffffffffffffffffffffffffffffffffffff168373ffffffffffffffffffffffffffffffffffffffff1614611a5657611a5581848661208b565b5b600073ffffffffffffffffffffffffffffffffffffffff168173ffffffffffffffffffffffffffffffffffffffff1614611ae757611a986000856000806114d5565b6001600360008373ffffffffffffffffffffffffffffffffffffffff1673ffffffffffffffffffffffffffffffffffffffff168152602001908152602001600020600082825403925050819055505b600073ffffffffffffffffffffffffffffffffffffffff168573ffffffffffffffffffffffffffffffffffffffff1614611b6a576001600360008773ffffffffffffffffffffffffffffffffffffffff1673ffffffffffffffffffffffffffffffffffffffff168152602001908152602001600020600082825401925050819055505b846002600086815260200190815260200160002060006101000a81548173ffffffffffffffffffffffffffffffffffffffff021916908373ffffffffffffffffffffffffffffffffffffffff160217905550838573ffffffffffffffffffffffffffffffffffffffff168273ffffffffffffffffffffffffffffffffffffffff167fddf252ad1be2c89b69c2b068fc378daa952ba7f163c4a11628f55a4df523b3ef60405160405180910390a4809150509392505050565b6008805490506009600083815260200190815260200160002081905550600881908060018154018082558091505060019003906000526020600020016000909190919091505550565b6000611c768361083f565b9050600060076000848152602001908152602001600020549050818114611d5b576000600660008673ffffffffffffffffffffffffffffffffffffffff1673ffffffffffffffffffffffffffffffffffffffff168152602001908152602001600020600084815260200190815260200160002054905080600660008773ffffffffffffffffffffffffffffffffffffffff1673ffffffffffffffffffffffffffffffffffffffff168152602001908152602001600020600084815260200190815260200160002081905550816007600083815260200190815260200160002081905550505b6007600084815260200190815260200160002060009055600660008573ffffffffffffffffffffffffffffffffffffffff1673ffffffffffffffffffffffffffffffffffffffff16815260200190815260200160002060008381526020019081526020016000206000905550505050565b60006001600880549050611de0919061316b565b9050600060096000848152602001908152602001600020549050600060088381548110611e1057611e0f61296a565b5b906000526020600020015490508060088381548110611e3257611e3161296a565b5b906000526020600020018190555081600960008381526020019081526020016000208190555060096000858152602001908152602001600020600090556008805480611e8157611e8061319f565b5b6001900381819060005260206000200160009055905550505050565b60006001611eaa8461083f565b611eb4919061316b565b905081600660008573ffffffffffffffffffffffffffffffffffffffff1673ffffffffffffffffffffffffffffffffffffffff168152602001908152602001600020600083815260200190815260200160002081905550806007600084815260200190815260200160002081905550505050565b600073ffffffffffffffffffffffffffffffffffffffff168273ffffffffffffffffffffffffffffffffffffffff1603611f9a5760006040517f64a0ae92000000000000000000000000000000000000000000000000000000008152600401611f919190612435565b60405180910390fd5b6000611fa883836000610cd5565b9050600073ffffffffffffffffffffffffffffffffffffffff168173ffffffffffffffffffffffffffffffffffffffff161461201c5760006040517f73c6ac6e0000000000000000000000000000000000000000000000000000000081526004016120139190612435565b60405180910390fd5b505050565b60007f01ffc9a7000000000000000000000000000000000000000000000000000000007bffffffffffffffffffffffffffffffffffffffffffffffffffffffff1916827bffffffffffffffffffffffffffffffffffffffffffffffffffffffff1916149050919050565b61209683838361214f565b61214a57600073ffffffffffffffffffffffffffffffffffffffff168373ffffffffffffffffffffffffffffffffffffffff160361210b57806040517f7e27328900000000000000000000000000000000000000000000000000000000815260040161210291906124cb565b60405180910390fd5b81816040517f177e802f000000000000000000000000000000000000000000000000000000008152600401612141929190612941565b60405180910390fd5b505050565b60008073ffffffffffffffffffffffffffffffffffffffff168373ffffffffffffffffffffffffffffffffffffffff161415801561220757508273ffffffffffffffffffffffffffffffffffffffff168473ffffffffffffffffffffffffffffffffffffffff1614806121c857506121c78484610a7b565b5b8061220657508273ffffffffffffffffffffffffffffffffffffffff166121ee83610c7e565b73ffffffffffffffffffffffffffffffffffffffff16145b5b90509392505050565b6000604051905090565b600080fd5b600080fd5b60007fffffffff0000000000000000000000000000000000000000000000000000000082169050919050565b61225981612224565b811461226457600080fd5b50565b60008135905061227681612250565b92915050565b6000602082840312156122925761229161221a565b5b60006122a084828501612267565b91505092915050565b60008115159050919050565b6122be816122a9565b82525050565b60006020820190506122d960008301846122b5565b92915050565b600081519050919050565b600082825260208201905092915050565b60005b838110156123195780820151818401526020810190506122fe565b60008484015250505050565b6000601f19601f8301169050919050565b6000612341826122df565b61234b81856122ea565b935061235b8185602086016122fb565b61236481612325565b840191505092915050565b600060208201905081810360008301526123898184612336565b905092915050565b6000819050919050565b6123a481612391565b81146123af57600080fd5b50565b6000813590506123c18161239b565b92915050565b6000602082840312156123dd576123dc61221a565b5b60006123eb848285016123b2565b91505092915050565b600073ffffffffffffffffffffffffffffffffffffffff82169050919050565b600061241f826123f4565b9050919050565b61242f81612414565b82525050565b600060208201905061244a6000830184612426565b92915050565b61245981612414565b811461246457600080fd5b50565b60008135905061247681612450565b92915050565b600080604083850312156124935761249261221a565b5b60006124a185828601612467565b92505060206124b2858286016123b2565b9150509250929050565b6124c581612391565b82525050565b60006020820190506124e060008301846124bc565b92915050565b6000806000606084860312156124ff576124fe61221a565b5b600061250d86828701612467565b935050602061251e86828701612467565b925050604061252f868287016123b2565b9150509250925092565b6000819050919050565b61254c81612539565b811461255757600080fd5b50565b60008135905061256981612543565b92915050565b600080604083850312156125865761258561221a565b5b60006125948582860161255a565b92505060206125a5858286016123b2565b9150509250929050565b600080604083850312156125c6576125c561221a565b5b60006125d485828601612467565b92505060206125e58582860161255a565b9150509250929050565b6000602082840312156126055761260461221a565b5b600061261384828501612467565b91505092915050565b612625816122a9565b811461263057600080fd5b50565b6000813590506126428161261c565b92915050565b6000806040838503121561265f5761265e61221a565b5b600061266d85828601612467565b925050602061267e85828601612633565b9150509250929050565b61269181612539565b82525050565b60006020820190506126ac6000830184612688565b92915050565b600080fd5b600080fd5b7f4e487b7100000000000000000000000000000000000000000000000000000000600052604160045260246000fd5b6126f482612325565b810181811067ffffffffffffffff82111715612713576127126126bc565b5b80604052505050565b6000612726612210565b905061273282826126eb565b919050565b600067ffffffffffffffff821115612752576127516126bc565b5b61275b82612325565b9050602081019050919050565b82818337600083830152505050565b600061278a61278584612737565b61271c565b9050828152602081018484840111156127a6576127a56126b7565b5b6127b1848285612768565b509392505050565b600082601f8301126127ce576127cd6126b2565b5b81356127de848260208601612777565b91505092915050565b600080600080608085870312156128015761280061221a565b5b600061280f87828801612467565b945050602061282087828801612467565b9350506040612831878288016123b2565b925050606085013567ffffffffffffffff8111156128525761285161221f565b5b61285e878288016127b9565b91505092959194509250565b600080604083850312156128815761288061221a565b5b600061288f85828601612467565b92505060206128a085828601612467565b9150509250929050565b7f4e487b7100000000000000000000000000000000000000000000000000000000600052602260045260246000fd5b600060028204905060018216806128f157607f821691505b602082108103612904576129036128aa565b5b50919050565b600060608201905061291f6000830186612426565b61292c60208301856124bc565b6129396040830184612426565b949350505050565b60006040820190506129566000830185612426565b61296360208301846124bc565b9392505050565b7f4e487b7100000000000000000000000000000000000000000000000000000000600052603260045260246000fd5b7f4e487b7100000000000000000000000000000000000000000000000000000000600052601160045260246000fd5b60006129d382612391565b91507fffffffffffffffffffffffffffffffffffffffffffffffffffffffffffffffff8203612a0557612a04612999565b5b600182019050919050565b600081905092915050565b7f7b226e616d65223a220000000000000000000000000000000000000000000000600082015250565b6000612a51600983612a10565b9150612a5c82612a1b565b600982019050919050565b7f4176617461722023000000000000000000000000000000000000000000000000600082015250565b6000612a9d600883612a10565b9150612aa882612a67565b600882019050919050565b6000612abe826122df565b612ac88185612a10565b9350612ad88185602086016122fb565b80840191505092915050565b7f222c000000000000000000000000000000000000000000000000000000000000600082015250565b6000612b1a600283612a10565b9150612b2582612ae4565b600282019050919050565b7f2255726c223a2200000000000000000000000000000000000000000000000000600082015250565b6000612b66600783612a10565b9150612b7182612b30565b600782019050919050565b7f68747470733a2f2f7261772e67697468756275736572636f6e74656e742e636f60008201527f6d2f6879756e6b6963686f2f6d65746176657273654176617461725265636f7260208201527f642f6d61696e2f6e6674446174612f506c61796572496e666f44617461000000604082015250565b6000612bfe605d83612a10565b9150612c0982612b7c565b605d82019050919050565b7f2e6a736f6e227d00000000000000000000000000000000000000000000000000600082015250565b6000612c4a600783612a10565b9150612c5582612c14565b600782019050919050565b6000612c6b82612a44565b9150612c7682612a90565b9150612c828285612ab3565b9150612c8d82612b0d565b9150612c9882612b59565b9150612ca382612bf1565b9150612caf8284612ab3565b9150612cba82612c3d565b91508190509392505050565b7f646174613a6170706c69636174696f6e2f6a736f6e3b6261736536342c000000600082015250565b6000612cfc601d83612a10565b9150612d0782612cc6565b601d82019050919050565b6000612d1d82612cef565b9150612d298284612ab3565b915081905092915050565b60008190508160005260206000209050919050565b60006020601f8301049050919050565b600082821b905092915050565b600060088302612d967fffffffffffffffffffffffffffffffffffffffffffffffffffffffffffffffff82612d59565b612da08683612d59565b95508019841693508086168417925050509392505050565b6000819050919050565b6000612ddd612dd8612dd384612391565b612db8565b612391565b9050919050565b6000819050919050565b612df783612dc2565b612e0b612e0382612de4565b848454612d66565b825550505050565b600090565b612e20612e13565b612e2b818484612dee565b505050565b5b81811015612e4f57612e44600082612e18565b600181019050612e31565b5050565b601f821115612e9457612e6581612d34565b612e6e84612d49565b81016020851015612e7d578190505b612e91612e8985612d49565b830182612e30565b50505b505050565b600082821c905092915050565b6000612eb760001984600802612e99565b1980831691505092915050565b6000612ed08383612ea6565b9150826002028217905092915050565b612ee9826122df565b67ffffffffffffffff811115612f0257612f016126bc565b5b612f0c82546128d9565b612f17828285612e53565b600060209050601f831160018114612f4a5760008415612f38578287015190505b612f428582612ec4565b865550612faa565b601f198416612f5886612d34565b60005b82811015612f8057848901518255600182019150602085019450602081019050612f5b565b86831015612f9d5784890151612f99601f891682612ea6565b8355505b6001600288020188555050505b505050505050565b600081519050919050565b600082825260208201905092915050565b6000612fd982612fb2565b612fe38185612fbd565b9350612ff38185602086016122fb565b612ffc81612325565b840191505092915050565b600060808201905061301c6000830187612426565b6130296020830186612426565b61303660408301856124bc565b81810360608301526130488184612fce565b905095945050505050565b60008151905061306281612250565b92915050565b60006020828403121561307e5761307d61221a565b5b600061308c84828501613053565b91505092915050565b7f4e487b7100000000000000000000000000000000000000000000000000000000600052601260045260246000fd5b60006130cf82612391565b91506130da83612391565b92508282019050808211156130f2576130f1612999565b5b92915050565b600061310382612391565b915061310e83612391565b92508261311e5761311d613095565b5b828204905092915050565b600061313482612391565b915061313f83612391565b925082820261314d81612391565b9150828204841483151761316457613163612999565b5b5092915050565b600061317682612391565b915061318183612391565b925082820390508181111561319957613198612999565b5b92915050565b7f4e487b7100000000000000000000000000000000000000000000000000000000600052603160045260246000fdfe4142434445464748494a4b4c4d4e4f505152535455565758595a6162636465666768696a6b6c6d6e6f707172737475767778797a303132333435363738392b2fa2646970667358221220bc1303e471f2294ca5911f7dc114536efb800f08833cadaf5fe3d2407ad185f164736f6c63430008180033",
  "linkReferences": {},
  "deployedLinkReferences": {}
}